{
  "address": "0x1c4f55FbB4c6d3Fb4Fbc0f933c6478c9564994c9",
  "abi": [
    {
      "anonymous": false,
      "inputs": [
        {
          "indexed": false,
          "internalType": "address",
          "name": "previousAdmin",
          "type": "address"
        },
        {
          "indexed": false,
          "internalType": "address",
          "name": "newAdmin",
          "type": "address"
        }
      ],
      "name": "AdminChanged",
      "type": "event"
    },
    {
      "anonymous": false,
      "inputs": [
        {
          "indexed": true,
          "internalType": "address",
          "name": "beacon",
          "type": "address"
        }
      ],
      "name": "BeaconUpgraded",
      "type": "event"
    },
    {
      "anonymous": false,
      "inputs": [
        {
          "indexed": true,
          "internalType": "address",
          "name": "newBrokerAddress",
          "type": "address"
        }
      ],
      "name": "BrokerAddressSet",
      "type": "event"
    },
    {
      "anonymous": false,
      "inputs": [
        {
          "indexed": true,
          "internalType": "address",
          "name": "newCoSignerAddress",
          "type": "address"
        }
      ],
      "name": "CoSignerAddressSet",
      "type": "event"
    },
    {
      "anonymous": false,
      "inputs": [
        {
          "indexed": true,
          "internalType": "uint256",
          "name": "id",
          "type": "uint256"
        },
        {
          "indexed": true,
          "internalType": "address",
          "name": "account",
          "type": "address"
        },
        {
          "indexed": true,
          "internalType": "address",
          "name": "asset",
          "type": "address"
        },
        {
          "indexed": false,
          "internalType": "uint256",
          "name": "amount",
          "type": "uint256"
        },
        {
          "indexed": false,
          "internalType": "bytes32",
          "name": "rid",
          "type": "bytes32"
        }
      ],
      "name": "Deposited",
      "type": "event"
    },
    {
      "anonymous": false,
      "inputs": [
        {
          "indexed": true,
          "internalType": "contract VaultImplBase",
          "name": "nextImplementation",
          "type": "address"
        }
      ],
      "name": "NextImplementationSet",
      "type": "event"
    },
    {
      "anonymous": false,
      "inputs": [
        {
          "indexed": true,
          "internalType": "bytes32",
          "name": "role",
          "type": "bytes32"
        },
        {
          "indexed": true,
          "internalType": "bytes32",
          "name": "previousAdminRole",
          "type": "bytes32"
        },
        {
          "indexed": true,
          "internalType": "bytes32",
          "name": "newAdminRole",
          "type": "bytes32"
        }
      ],
      "name": "RoleAdminChanged",
      "type": "event"
    },
    {
      "anonymous": false,
      "inputs": [
        {
          "indexed": true,
          "internalType": "bytes32",
          "name": "role",
          "type": "bytes32"
        },
        {
          "indexed": true,
          "internalType": "address",
          "name": "account",
          "type": "address"
        },
        {
          "indexed": true,
          "internalType": "address",
          "name": "sender",
          "type": "address"
        }
      ],
      "name": "RoleGranted",
      "type": "event"
    },
    {
      "anonymous": false,
      "inputs": [
        {
          "indexed": true,
          "internalType": "bytes32",
          "name": "role",
          "type": "bytes32"
        },
        {
          "indexed": true,
          "internalType": "address",
          "name": "account",
          "type": "address"
        },
        {
          "indexed": true,
          "internalType": "address",
          "name": "sender",
          "type": "address"
        }
      ],
      "name": "RoleRevoked",
      "type": "event"
    },
    {
      "anonymous": false,
      "inputs": [
        {
          "indexed": true,
          "internalType": "address",
          "name": "implementation",
          "type": "address"
        }
      ],
      "name": "Upgraded",
      "type": "event"
    },
    {
      "anonymous": false,
      "inputs": [
        {
          "indexed": true,
          "internalType": "uint256",
          "name": "id",
          "type": "uint256"
        },
        {
          "indexed": true,
          "internalType": "address",
          "name": "destination",
          "type": "address"
        },
        {
          "indexed": true,
          "internalType": "address",
          "name": "asset",
          "type": "address"
        },
        {
          "indexed": false,
          "internalType": "uint256",
          "name": "amount",
          "type": "uint256"
        },
        {
          "indexed": false,
          "internalType": "bytes32",
          "name": "rid",
          "type": "bytes32"
        }
      ],
      "name": "Withdrawn",
      "type": "event"
    },
    {
      "inputs": [],
      "name": "DEFAULT_ADMIN_ROLE",
      "outputs": [
        {
          "internalType": "bytes32",
          "name": "",
          "type": "bytes32"
        }
      ],
      "stateMutability": "view",
      "type": "function"
    },
    {
      "inputs": [],
      "name": "DEPOSIT_ACTION",
      "outputs": [
        {
          "internalType": "bytes32",
          "name": "",
          "type": "bytes32"
        }
      ],
      "stateMutability": "view",
      "type": "function"
    },
    {
      "inputs": [],
      "name": "MAINTAINER_ROLE",
      "outputs": [
        {
          "internalType": "bytes32",
          "name": "",
          "type": "bytes32"
        }
      ],
      "stateMutability": "view",
      "type": "function"
    },
    {
      "inputs": [],
      "name": "WITHDRAW_ACTION",
      "outputs": [
        {
          "internalType": "bytes32",
          "name": "",
          "type": "bytes32"
        }
      ],
      "stateMutability": "view",
      "type": "function"
    },
    {
      "inputs": [],
      "name": "applyUpgrade",
      "outputs": [],
      "stateMutability": "nonpayable",
      "type": "function"
    },
    {
      "inputs": [
        {
          "components": [
            {
              "internalType": "bytes32",
              "name": "action",
              "type": "bytes32"
            },
            {
              "internalType": "bytes32",
              "name": "rid",
              "type": "bytes32"
            },
            {
              "internalType": "uint64",
              "name": "expire",
              "type": "uint64"
            },
            {
              "internalType": "address",
              "name": "destination",
              "type": "address"
            },
            {
              "components": [
                {
                  "internalType": "address",
                  "name": "asset",
                  "type": "address"
                },
                {
                  "internalType": "uint256",
                  "name": "amount",
                  "type": "uint256"
                }
              ],
              "internalType": "struct IVault.Allocation[]",
              "name": "allocations",
              "type": "tuple[]"
            },
            {
              "internalType": "address",
              "name": "implAddress",
              "type": "address"
            },
            {
              "internalType": "uint256",
              "name": "chainId",
              "type": "uint256"
            }
          ],
          "internalType": "struct IVault.Payload",
          "name": "payload",
          "type": "tuple"
        },
        {
          "internalType": "bytes",
          "name": "brokerSignature",
          "type": "bytes"
        },
        {
          "internalType": "bytes",
          "name": "coSignerSignature",
          "type": "bytes"
        }
      ],
      "name": "deposit",
      "outputs": [],
      "stateMutability": "payable",
      "type": "function"
    },
    {
      "inputs": [],
      "name": "getBrokerAddress",
      "outputs": [
        {
          "internalType": "address",
          "name": "",
          "type": "address"
        }
      ],
      "stateMutability": "view",
      "type": "function"
    },
    {
      "inputs": [],
      "name": "getCoSignerAddress",
      "outputs": [
        {
          "internalType": "address",
          "name": "",
          "type": "address"
        }
      ],
      "stateMutability": "view",
      "type": "function"
    },
    {
      "inputs": [],
      "name": "getLastId",
      "outputs": [
        {
          "internalType": "uint256",
          "name": "",
          "type": "uint256"
        }
      ],
      "stateMutability": "view",
      "type": "function"
    },
    {
      "inputs": [],
      "name": "getNextImplementation",
      "outputs": [
        {
          "internalType": "contract VaultImplBase",
          "name": "",
          "type": "address"
        }
      ],
      "stateMutability": "view",
      "type": "function"
    },
    {
      "inputs": [
        {
          "internalType": "bytes32",
          "name": "role",
          "type": "bytes32"
        }
      ],
      "name": "getRoleAdmin",
      "outputs": [
        {
          "internalType": "bytes32",
          "name": "",
          "type": "bytes32"
        }
      ],
      "stateMutability": "view",
      "type": "function"
    },
    {
      "inputs": [
        {
          "internalType": "bytes32",
          "name": "role",
          "type": "bytes32"
        },
        {
          "internalType": "address",
          "name": "account",
          "type": "address"
        }
      ],
      "name": "grantRole",
      "outputs": [],
      "stateMutability": "nonpayable",
      "type": "function"
    },
    {
      "inputs": [
        {
          "internalType": "bytes32",
          "name": "role",
          "type": "bytes32"
        },
        {
          "internalType": "address",
          "name": "account",
          "type": "address"
        }
      ],
      "name": "hasRole",
      "outputs": [
        {
          "internalType": "bool",
          "name": "",
          "type": "bool"
        }
      ],
      "stateMutability": "view",
      "type": "function"
    },
    {
      "inputs": [],
      "name": "initialize",
      "outputs": [],
      "stateMutability": "nonpayable",
      "type": "function"
    },
    {
      "inputs": [],
      "name": "proxiableUUID",
      "outputs": [
        {
          "internalType": "bytes32",
          "name": "",
          "type": "bytes32"
        }
      ],
      "stateMutability": "view",
      "type": "function"
    },
    {
      "inputs": [
        {
          "internalType": "bytes32",
          "name": "role",
          "type": "bytes32"
        },
        {
          "internalType": "address",
          "name": "account",
          "type": "address"
        }
      ],
      "name": "renounceRole",
      "outputs": [],
      "stateMutability": "nonpayable",
      "type": "function"
    },
    {
      "inputs": [
        {
          "internalType": "bytes32",
          "name": "role",
          "type": "bytes32"
        },
        {
          "internalType": "address",
          "name": "account",
          "type": "address"
        }
      ],
      "name": "revokeRole",
      "outputs": [],
      "stateMutability": "nonpayable",
      "type": "function"
    },
    {
      "inputs": [
        {
          "internalType": "address",
          "name": "address_",
          "type": "address"
        },
        {
          "internalType": "bytes",
          "name": "signature",
          "type": "bytes"
        }
      ],
      "name": "setBrokerAddress",
      "outputs": [],
      "stateMutability": "nonpayable",
      "type": "function"
    },
    {
      "inputs": [
        {
          "internalType": "address",
          "name": "address_",
          "type": "address"
        },
        {
          "internalType": "bytes",
          "name": "signature",
          "type": "bytes"
        }
      ],
      "name": "setCoSignerAddress",
      "outputs": [],
      "stateMutability": "nonpayable",
      "type": "function"
    },
    {
      "inputs": [
        {
          "internalType": "contract VaultImplBase",
          "name": "nextImplementation",
          "type": "address"
        }
      ],
      "name": "setNextImplementation",
      "outputs": [],
      "stateMutability": "nonpayable",
      "type": "function"
    },
    {
      "inputs": [
        {
          "internalType": "address",
          "name": "brokerAddress",
          "type": "address"
        },
        {
          "internalType": "address",
          "name": "coSignerAddress",
          "type": "address"
        }
      ],
      "name": "setup",
      "outputs": [],
      "stateMutability": "nonpayable",
      "type": "function"
    },
    {
      "inputs": [
        {
          "internalType": "bytes4",
          "name": "interfaceId",
          "type": "bytes4"
        }
      ],
      "name": "supportsInterface",
      "outputs": [
        {
          "internalType": "bool",
          "name": "",
          "type": "bool"
        }
      ],
      "stateMutability": "view",
      "type": "function"
    },
    {
      "inputs": [],
      "name": "upgrade",
      "outputs": [],
      "stateMutability": "nonpayable",
      "type": "function"
    },
    {
      "inputs": [
        {
          "components": [
            {
              "internalType": "bytes32",
              "name": "action",
              "type": "bytes32"
            },
            {
              "internalType": "bytes32",
              "name": "rid",
              "type": "bytes32"
            },
            {
              "internalType": "uint64",
              "name": "expire",
              "type": "uint64"
            },
            {
              "internalType": "address",
              "name": "destination",
              "type": "address"
            },
            {
              "components": [
                {
                  "internalType": "address",
                  "name": "asset",
                  "type": "address"
                },
                {
                  "internalType": "uint256",
                  "name": "amount",
                  "type": "uint256"
                }
              ],
              "internalType": "struct IVault.Allocation[]",
              "name": "allocations",
              "type": "tuple[]"
            },
            {
              "internalType": "address",
              "name": "implAddress",
              "type": "address"
            },
            {
              "internalType": "uint256",
              "name": "chainId",
              "type": "uint256"
            }
          ],
          "internalType": "struct IVault.Payload",
          "name": "payload",
          "type": "tuple"
        },
        {
          "internalType": "bytes",
          "name": "brokerSignature",
          "type": "bytes"
        },
        {
          "internalType": "bytes",
          "name": "coSignerSignature",
          "type": "bytes"
        }
      ],
      "name": "withdraw",
      "outputs": [],
      "stateMutability": "payable",
      "type": "function"
    }
  ],
  "args": [],
  "numDeployments": 1,
  "solcInputHash": "60573daaf703b70dd06406be8237da4a",
  "bytecode": "0x60a0604052306080526001805460ff60b01b191690553480156200002257600080fd5b506200002d62000033565b62000127565b6200004d6000801b336200008660201b62001e631760201c565b620000847f339759585899103d2ace64958e37e18ccb0504652c81d4a1b8aa80fe2126ab95336200008660201b62001e631760201c565b565b6000828152602081815260408083206001600160a01b038516845290915290205460ff1662000123576000828152602081815260408083206001600160a01b03851684529091529020805460ff19166001179055620000e23390565b6001600160a01b0316816001600160a01b0316837f2f8788117e7eff1d82e926ec794901d17c78024a50270940304540a733656f0d60405160405180910390a45b5050565b608051613551620002006000396000818161048d015281816104d60152818161054601528181610586015281816106c3015281816107d40152818161093601528181610990015281816109ea01528181610a2a01528181610fd10152818161101101528181611129015281816111690152818161124001528181611280015281816113f4015281816114340152818161149b015281816114db01528181611a6e01528181611aae01528181611c0701528181611c4701528181611dbd01528181611dfd01528181612359015261239901526135516000f3fe60806040526004361061014b5760003560e01c80638777b393116100b6578063d320c77b1161006f578063d320c77b1461038a578063d547741f146103aa578063d55ec697146103ca578063f1a8341e146103df578063f776fc68146103f4578063f87422541461042857600080fd5b80638777b393146102e457806391d14854146102f9578063a217fddf14610319578063a8e5862d1461032e578063b21d1e5314610343578063cf8a11b91461037757600080fd5b806336568abe1161010857806336568abe146102525780633a7189211461027257806352d1902d1461028757806356f10b001461029c57806380cadf91146102af5780638129fc1c146102cf57600080fd5b806301ffc9a7146101505780630c3392b714610185578063248a9ca3146101b25780632d34ba79146101f05780632f2ff15d1461021257806331bd679f14610232575b600080fd5b34801561015c57600080fd5b5061017061016b366004612cae565b61044a565b60405190151581526020015b60405180910390f35b34801561019157600080fd5b5061019a610481565b6040516001600160a01b03909116815260200161017c565b3480156101be57600080fd5b506101e26101cd366004612cd8565b60009081526020819052604090206001015490565b60405190815260200161017c565b3480156101fc57600080fd5b5061021061020b366004612d16565b61053c565b005b34801561021e57600080fd5b5061021061022d366004612d4f565b61068e565b34801561023e57600080fd5b5061021061024d366004612d74565b6106b8565b34801561025e57600080fd5b5061021061026d366004612d4f565b6108ab565b34801561027e57600080fd5b5061019a610929565b34801561029357600080fd5b506101e2610983565b6102106102aa366004612dd2565b6109e0565b3480156102bb57600080fd5b506102106102ca366004612e6e565b610fc7565b3480156102db57600080fd5b5061021061111f565b3480156102f057600080fd5b50610210611236565b34801561030557600080fd5b50610170610314366004612d4f565b6113bf565b34801561032557600080fd5b506101e2600081565b34801561033a57600080fd5b506101e26113e8565b34801561034f57600080fd5b506101e27f7db3a5ce85cf60bbe764132be0fbcb68292ae2471573882a46c8bcdaa1187b5781565b610210610385366004612dd2565b611491565b34801561039657600080fd5b506102106103a5366004612e6e565b611a64565b3480156103b657600080fd5b506102106103c5366004612d4f565b611b7c565b3480156103d657600080fd5b50610210611ba1565b3480156103eb57600080fd5b5061019a611db1565b34801561040057600080fd5b506101e27fa2d4613c2e2e0782566f63085acedcb19fbd37900464a8316040997ccd6e9fea81565b34801561043457600080fd5b506101e26000805160206134fc83398151915281565b60006001600160e01b03198216637965db0b60e01b148061047b57506301ffc9a760e01b6001600160e01b03198316145b92915050565b60006001600160a01b037f00000000000000000000000000000000000000000000000000000000000000001630036104d45760405162461bcd60e51b81526004016104cb90612ec2565b60405180910390fd5b7f00000000000000000000000000000000000000000000000000000000000000006001600160a01b0316610506611ee7565b6001600160a01b03161461052c5760405162461bcd60e51b81526004016104cb90612f05565b506003546001600160a01b031690565b6001600160a01b037f00000000000000000000000000000000000000000000000000000000000000001630036105845760405162461bcd60e51b81526004016104cb90612ec2565b7f00000000000000000000000000000000000000000000000000000000000000006001600160a01b03166105b6611ee7565b6001600160a01b0316146105dc5760405162461bcd60e51b81526004016104cb90612f05565b60006105e781611f03565b600154600160b01b900460ff161561063a5760405162461bcd60e51b815260206004820152601660248201527505661756c7420697320616c72656164792073657475760541b60448201526064016104cb565b61064383611f0d565b61064c82611f0d565b506001805460ff60b01b1916600160b01b179055600280546001600160a01b039384166001600160a01b03199182161790915560038054929093169116179055565b6000828152602081905260409020600101546106a981611f03565b6106b38383611e63565b505050565b306001600160a01b037f000000000000000000000000000000000000000000000000000000000000000016146107005760405162461bcd60e51b81526004016104cb90612f48565b6107186000805160206134fc833981519152336113bf565b61075c5760405162461bcd60e51b815260206004820152601560248201527421b0b63632b9103737ba1036b0b4b73a30b4b732b960591b60448201526064016104cb565b6001546001600160a01b0316156107bf5760405162461bcd60e51b815260206004820152602160248201527f6e657874496d706c656d656e746174696f6e20697320616c72656164792073656044820152601d60fa1b60648201526084016104cb565b6001600160a01b0381161580159061080957507f00000000000000000000000000000000000000000000000000000000000000006001600160a01b0316816001600160a01b031614155b6108615760405162461bcd60e51b815260206004820152602360248201527f496e76616c6964206e657874496d706c656d656e746174696f6e20737570706c6044820152621a595960ea1b60648201526084016104cb565b600180546001600160a01b0319166001600160a01b0383169081179091556040517fd29e16348a743868e0d8abbe198181558821118e9ffd596ad33d0e54899b6f0190600090a250565b6001600160a01b038116331461091b5760405162461bcd60e51b815260206004820152602f60248201527f416363657373436f6e74726f6c3a2063616e206f6e6c792072656e6f756e636560448201526e103937b632b9903337b91039b2b63360891b60648201526084016104cb565b6109258282611f55565b5050565b6000306001600160a01b037f000000000000000000000000000000000000000000000000000000000000000016146109735760405162461bcd60e51b81526004016104cb90612f48565b506001546001600160a01b031690565b6000306001600160a01b037f000000000000000000000000000000000000000000000000000000000000000016146109cd5760405162461bcd60e51b81526004016104cb90612f48565b506000805160206134b583398151915290565b6001600160a01b037f0000000000000000000000000000000000000000000000000000000000000000163003610a285760405162461bcd60e51b81526004016104cb90612ec2565b7f00000000000000000000000000000000000000000000000000000000000000006001600160a01b0316610a5a611ee7565b6001600160a01b031614610a805760405162461bcd60e51b81526004016104cb90612f05565b6000339050610ac58186868080601f016020809104026020016040519081016040528093929190818152602001838380828437600092019190915250611fba92505050565b610b058184848080601f016020809104026020016040519081016040528093929190818152602001838380828437600092019190915250611fba92505050565b600086604051602001610b189190612ff9565b60408051601f198184030181526002546020601f8a01819004810285018101909352888452909350610b73926001600160a01b03909116918491908a908a908190840183828082843760009201919091525061202c92505050565b600354604080516020601f8701819004810282018101909252858152610bc0926001600160a01b031691849190889088908190840183828082843760009201919091525061202c92505050565b610bd1610bcc88613212565b6120e8565b86357fa2d4613c2e2e0782566f63085acedcb19fbd37900464a8316040997ccd6e9fea14610c325760405162461bcd60e51b815260206004820152600e60248201526d24b73b30b634b21030b1ba34b7b760911b60448201526064016104cb565b6001600160a01b038216610c4c6080890160608a01612d74565b6001600160a01b031614610c985760405162461bcd60e51b815260206004820152601360248201527224b73b30b634b2103232b9ba34b730ba34b7b760691b60448201526064016104cb565b610cd88287878080601f0160208091040260200160405190810160405280939291908181526020018383808284376000920191909152506122c792505050565b610d188285858080601f0160208091040260200160405190810160405280939291908181526020018383808284376000920191909152506122c792505050565b60005b610d2860808901896132a9565b9050811015610fbd576000610d4060808a018a6132a9565b83818110610d5057610d506132f2565b610d669260206040909202019081019150612d74565b90506000610d7760808b018b6132a9565b84818110610d8757610d876132f2565b90506040020160200135905060006001600160a01b0316826001600160a01b031603610df757803414610df25760405162461bcd60e51b8152602060048201526013602482015272496e636f7272656374206d73672e76616c756560681b60448201526064016104cb565b610ed0565b6001600160a01b0382166323b872dd610e1660808d0160608e01612d74565b6040516001600160e01b031960e084901b1681526001600160a01b03909116600482015230602482015260448101849052606401600060405180830381600087803b158015610e6457600080fd5b505af1158015610e78573d6000803e3d6000fd5b50505050610e846122ff565b610ed05760405162461bcd60e51b815260206004820152601760248201527f436f756c64206e6f74206465706f73697420455243323000000000000000000060448201526064016104cb565b610ede600480546001019055565b610eeb60808b018b6132a9565b84818110610efb57610efb6132f2565b610f119260206040909202019081019150612d74565b6001600160a01b0316610f2a60808c0160608d01612d74565b6001600160a01b0316610f3c60045490565b7f22d2a1a57cfc2beb4f12eb1036a9e6a87b32b4256b040912b14e3f665d6deef5610f6a60808f018f6132a9565b88818110610f7a57610f7a6132f2565b905060400201602001358e60200135604051610fa0929190918252602082015260400190565b60405180910390a450508080610fb59061331e565b915050610d1b565b5050505050505050565b6001600160a01b037f000000000000000000000000000000000000000000000000000000000000000016300361100f5760405162461bcd60e51b81526004016104cb90612ec2565b7f00000000000000000000000000000000000000000000000000000000000000006001600160a01b0316611041611ee7565b6001600160a01b0316146110675760405162461bcd60e51b81526004016104cb90612f05565b600254604080516001600160a01b0386811660208301526110ca931691015b60408051601f198184030181526020601f87018190048102840181019092528583529190869086908190840183828082843760009201919091525061202c92505050565b6110d383611f0d565b600280546001600160a01b0319166001600160a01b0385169081179091556040517f480ae7e87535ab89d3903933ea168868a91e5290f9f0115a40cf0932870cd82d90600090a2505050565b6001600160a01b037f00000000000000000000000000000000000000000000000000000000000000001630036111675760405162461bcd60e51b81526004016104cb90612ec2565b7f00000000000000000000000000000000000000000000000000000000000000006001600160a01b0316611199611ee7565b6001600160a01b0316146111bf5760405162461bcd60e51b81526004016104cb90612f05565b600154600160a01b900460ff161561120f5760405162461bcd60e51b8152602060048201526013602482015272105b1c9958591e481a5b9a5d1a585b1a5e9959606a1b60448201526064016104cb565b6001805461ffff60a01b191661010160a01b17905561122c61232c565b61123461234f565b565b6001600160a01b037f000000000000000000000000000000000000000000000000000000000000000016300361127e5760405162461bcd60e51b81526004016104cb90612ec2565b7f00000000000000000000000000000000000000000000000000000000000000006001600160a01b03166112b0611ee7565b6001600160a01b0316146112d65760405162461bcd60e51b81526004016104cb90612f05565b600154600160a81b900460ff16156113235760405162461bcd60e51b815260206004820152601060248201526f105b1c9958591e481b5a59dc985d195960821b60448201526064016104cb565b6001805460ff60a81b1916600160a81b17905561133e61234f565b6000611348611ee7565b6001600160a01b0316633a7189216040518163ffffffff1660e01b8152600401602060405180830381865afa158015611385573d6000803e3d6000fd5b505050506040513d601f19601f820116820180604052508101906113a99190613337565b6001600160a01b03161461123457611234611ba1565b6000918252602082815260408084206001600160a01b0393909316845291905290205460ff1690565b60006001600160a01b037f00000000000000000000000000000000000000000000000000000000000000001630036114325760405162461bcd60e51b81526004016104cb90612ec2565b7f00000000000000000000000000000000000000000000000000000000000000006001600160a01b0316611464611ee7565b6001600160a01b03161461148a5760405162461bcd60e51b81526004016104cb90612f05565b5060045490565b6001600160a01b037f00000000000000000000000000000000000000000000000000000000000000001630036114d95760405162461bcd60e51b81526004016104cb90612ec2565b7f00000000000000000000000000000000000000000000000000000000000000006001600160a01b031661150b611ee7565b6001600160a01b0316146115315760405162461bcd60e51b81526004016104cb90612f05565b60003390506115768186868080601f016020809104026020016040519081016040528093929190818152602001838380828437600092019190915250611fba92505050565b6115b68184848080601f016020809104026020016040519081016040528093929190818152602001838380828437600092019190915250611fba92505050565b6000866040516020016115c99190612ff9565b60408051601f198184030181526002546020601f8a01819004810285018101909352888452909350611624926001600160a01b03909116918491908a908a908190840183828082843760009201919091525061202c92505050565b600354604080516020601f8701819004810282018101909252858152611671926001600160a01b031691849190889088908190840183828082843760009201919091525061202c92505050565b61167d610bcc88613212565b86357f7db3a5ce85cf60bbe764132be0fbcb68292ae2471573882a46c8bcdaa1187b57146116de5760405162461bcd60e51b815260206004820152600e60248201526d24b73b30b634b21030b1ba34b7b760911b60448201526064016104cb565b61171e8287878080601f0160208091040260200160405190810160405280939291908181526020018383808284376000920191909152506122c792505050565b61175e8285858080601f0160208091040260200160405190810160405280939291908181526020018383808284376000920191909152506122c792505050565b60005b61176e60808901896132a9565b9050811015610fbd57600061178660808a018a6132a9565b83818110611796576117966132f2565b6117ac9260206040909202019081019150612d74565b905060006117bd60808b018b6132a9565b848181106117cd576117cd6132f2565b90506040020160200135905060006001600160a01b0316826001600160a01b0316036118a457600061180560808c0160608d01612d74565b6001600160a01b03168260405160006040518083038185875af1925050503d806000811461184f576040519150601f19603f3d011682016040523d82523d6000602084013e611854565b606091505b505090508061189e5760405162461bcd60e51b8152602060048201526016602482015275086deead8c840dcdee840e8e4c2dce6cccae4408aa8960531b60448201526064016104cb565b50611977565b6001600160a01b03821663a9059cbb6118c360808d0160608e01612d74565b6040516001600160e01b031960e084901b1681526001600160a01b03909116600482015260248101849052604401600060405180830381600087803b15801561190b57600080fd5b505af115801561191f573d6000803e3d6000fd5b5050505061192b6122ff565b6119775760405162461bcd60e51b815260206004820152601860248201527f436f756c64206e6f74207472616e73666572204552433230000000000000000060448201526064016104cb565b611985600480546001019055565b61199260808b018b6132a9565b848181106119a2576119a26132f2565b6119b89260206040909202019081019150612d74565b6001600160a01b03166119d160808c0160608d01612d74565b6001600160a01b03166119e360045490565b7fd2b78ee4d7746a7014b79934b6d75a4b59c05550a8303c1d1b2f88940de4ec01611a1160808f018f6132a9565b88818110611a2157611a216132f2565b905060400201602001358e60200135604051611a47929190918252602082015260400190565b60405180910390a450508080611a5c9061331e565b915050611761565b6001600160a01b037f0000000000000000000000000000000000000000000000000000000000000000163003611aac5760405162461bcd60e51b81526004016104cb90612ec2565b7f00000000000000000000000000000000000000000000000000000000000000006001600160a01b0316611ade611ee7565b6001600160a01b031614611b045760405162461bcd60e51b81526004016104cb90612f05565b600354604080516001600160a01b038681166020830152611b2793169101611086565b611b3083611f0d565b600380546001600160a01b0319166001600160a01b0385169081179091556040517fd57bc400c1350cbcb94fbc677b99d85bf4e8becc2ac647472ab984234aab2d4c90600090a2505050565b600082815260208190526040902060010154611b9781611f03565b6106b38383611f55565b611bb96000805160206134fc833981519152336113bf565b611bfd5760405162461bcd60e51b815260206004820152601560248201527421b0b63632b9103737ba1036b0b4b73a30b4b732b960591b60448201526064016104cb565b6001600160a01b037f0000000000000000000000000000000000000000000000000000000000000000163003611c455760405162461bcd60e51b81526004016104cb90612ec2565b7f00000000000000000000000000000000000000000000000000000000000000006001600160a01b0316611c77611ee7565b6001600160a01b031614611c9d5760405162461bcd60e51b81526004016104cb90612f05565b6000611ca7611ee7565b6001600160a01b0316633a7189216040518163ffffffff1660e01b8152600401602060405180830381865afa158015611ce4573d6000803e3d6000fd5b505050506040513d601f19601f82011682018060405250810190611d089190613337565b90506001600160a01b038116611d6c5760405162461bcd60e51b8152602060048201526024808201527f4e6f206e65787420696d706c656d656e746174696f6e20746f207570677261646044820152636520746f60e01b60648201526084016104cb565b6001805460ff60a81b191681556040805160048152602481019091526020810180516001600160e01b0316638777b39360e01b179052611dae918391906123ef565b50565b60006001600160a01b037f0000000000000000000000000000000000000000000000000000000000000000163003611dfb5760405162461bcd60e51b81526004016104cb90612ec2565b7f00000000000000000000000000000000000000000000000000000000000000006001600160a01b0316611e2d611ee7565b6001600160a01b031614611e535760405162461bcd60e51b81526004016104cb90612f05565b506002546001600160a01b031690565b611e6d82826113bf565b610925576000828152602081815260408083206001600160a01b03851684529091529020805460ff19166001179055611ea33390565b6001600160a01b0316816001600160a01b0316837f2f8788117e7eff1d82e926ec794901d17c78024a50270940304540a733656f0d60405160405180910390a45050565b6000805160206134b5833981519152546001600160a01b031690565b611dae813361255a565b6001600160a01b038116611dae5760405162461bcd60e51b815260206004820152600f60248201526e496e76616c6964206164647265737360881b60448201526064016104cb565b611f5f82826113bf565b15610925576000828152602081815260408083206001600160a01b0385168085529252808320805460ff1916905551339285917ff6391f5c32d9c69d2a47ea670b442974b53935d1edc7fd64eb21e047a839171b9190a45050565b6001600160a01b0382166000908152600560209081526040808320845185840120845290915290205460ff16156109255760405162461bcd60e51b815260206004820152601660248201527514da59db985d1d5c9948185b1c9958591e481d5cd95960521b60448201526064016104cb565b826001600160a01b031661209e8261209885805190602001206040517f19457468657265756d205369676e6564204d6573736167653a0a3332000000006020820152603c8101829052600090605c01604051602081830303815290604052805190602001209050919050565b906125be565b6001600160a01b0316146106b35760405162461bcd60e51b8152602060048201526011602482015270496e76616c6964207369676e617475726560781b60448201526064016104cb565b4281604001516001600160401b0316116121365760405162461bcd60e51b815260206004820152600f60248201526e14995c5d595cdd08195e1c1a5c9959608a1b60448201526064016104cb565b60608101516001600160a01b03166121905760405162461bcd60e51b815260206004820152601b60248201527f44657374696e6174696f6e206973207a65726f2061646472657373000000000060448201526064016104cb565b60005b816080015151811015612214576000826080015182815181106121b8576121b86132f2565b602002602001015160200151116122025760405162461bcd60e51b815260206004820152600e60248201526d416d6f756e74206973207a65726f60901b60448201526064016104cb565b8061220c8161331e565b915050612193565b5061221d611ee7565b6001600160a01b03168160a001516001600160a01b0316146122815760405162461bcd60e51b815260206004820152601e60248201527f496e76616c696420696d706c656d656e746174696f6e2061646472657373000060448201526064016104cb565b468160c0015114611dae5760405162461bcd60e51b815260206004820152601060248201526f125b9d985b1a590818da185a5b881a5960821b60448201526064016104cb565b6001600160a01b039091166000908152600560209081526040808320845194830194909420835292905220805460ff19166001179055565b60003d8015612315576020811461231e57600080fd5b60001991505090565b60206000803e505060005190565b612337600033611e63565b6112346000805160206134fc83398151915233611e63565b6001600160a01b037f00000000000000000000000000000000000000000000000000000000000000001630036123975760405162461bcd60e51b81526004016104cb90612ec2565b7f00000000000000000000000000000000000000000000000000000000000000006001600160a01b03166123c9611ee7565b6001600160a01b0316146112345760405162461bcd60e51b81526004016104cb90612f05565b7f4910fdfa16fed3260ed0e7147f7cc6da11a60208b5b9406d12a635614ffd91435460ff1615612422576106b3836125e2565b826001600160a01b03166352d1902d6040518163ffffffff1660e01b8152600401602060405180830381865afa92505050801561247c575060408051601f3d908101601f1916820190925261247991810190613354565b60015b6124df5760405162461bcd60e51b815260206004820152602e60248201527f45524331393637557067726164653a206e657720696d706c656d656e7461746960448201526d6f6e206973206e6f74205555505360901b60648201526084016104cb565b6000805160206134b5833981519152811461254e5760405162461bcd60e51b815260206004820152602960248201527f45524331393637557067726164653a20756e737570706f727465642070726f786044820152681a58589b195555525160ba1b60648201526084016104cb565b506106b383838361267e565b61256482826113bf565b6109255761257c816001600160a01b031660146126a9565b6125878360206126a9565b604051602001612598929190613391565b60408051601f198184030181529082905262461bcd60e51b82526104cb91600401613406565b60008060006125cd858561284b565b915091506125da81612890565b509392505050565b6001600160a01b0381163b61264f5760405162461bcd60e51b815260206004820152602d60248201527f455243313936373a206e657720696d706c656d656e746174696f6e206973206e60448201526c1bdd08184818dbdb9d1c9858dd609a1b60648201526084016104cb565b6000805160206134b583398151915280546001600160a01b0319166001600160a01b0392909216919091179055565b61268783612a46565b6000825111806126945750805b156106b3576126a38383612a86565b50505050565b606060006126b8836002613439565b6126c3906002613458565b6001600160401b038111156126da576126da6130d6565b6040519080825280601f01601f191660200182016040528015612704576020820181803683370190505b509050600360fc1b8160008151811061271f5761271f6132f2565b60200101906001600160f81b031916908160001a905350600f60fb1b8160018151811061274e5761274e6132f2565b60200101906001600160f81b031916908160001a9053506000612772846002613439565b61277d906001613458565b90505b60018111156127f5576f181899199a1a9b1b9c1cb0b131b232b360811b85600f16601081106127b1576127b16132f2565b1a60f81b8282815181106127c7576127c76132f2565b60200101906001600160f81b031916908160001a90535060049490941c936127ee8161346b565b9050612780565b5083156128445760405162461bcd60e51b815260206004820181905260248201527f537472696e67733a20686578206c656e67746820696e73756666696369656e7460448201526064016104cb565b9392505050565b60008082516041036128815760208301516040840151606085015160001a61287587828585612aab565b94509450505050612889565b506000905060025b9250929050565b60008160048111156128a4576128a4613482565b036128ac5750565b60018160048111156128c0576128c0613482565b0361290d5760405162461bcd60e51b815260206004820152601860248201527f45434453413a20696e76616c6964207369676e6174757265000000000000000060448201526064016104cb565b600281600481111561292157612921613482565b0361296e5760405162461bcd60e51b815260206004820152601f60248201527f45434453413a20696e76616c6964207369676e6174757265206c656e6774680060448201526064016104cb565b600381600481111561298257612982613482565b036129da5760405162461bcd60e51b815260206004820152602260248201527f45434453413a20696e76616c6964207369676e6174757265202773272076616c604482015261756560f01b60648201526084016104cb565b60048160048111156129ee576129ee613482565b03611dae5760405162461bcd60e51b815260206004820152602260248201527f45434453413a20696e76616c6964207369676e6174757265202776272076616c604482015261756560f01b60648201526084016104cb565b612a4f816125e2565b6040516001600160a01b038216907fbc7cd75a20ee27fd9adebab32041f755214dbc6bffa90cc0225b39da2e5c2d3b90600090a250565b606061284483836040518060600160405280602781526020016134d560279139612b98565b6000807f7fffffffffffffffffffffffffffffff5d576e7357a4501ddfe92f46681b20a0831115612ae25750600090506003612b8f565b8460ff16601b14158015612afa57508460ff16601c14155b15612b0b5750600090506004612b8f565b6040805160008082526020820180845289905260ff881692820192909252606081018690526080810185905260019060a0016020604051602081039080840390855afa158015612b5f573d6000803e3d6000fd5b5050604051601f1901519150506001600160a01b038116612b8857600060019250925050612b8f565b9150600090505b94509492505050565b60606001600160a01b0384163b612c005760405162461bcd60e51b815260206004820152602660248201527f416464726573733a2064656c65676174652063616c6c20746f206e6f6e2d636f6044820152651b9d1c9858dd60d21b60648201526084016104cb565b600080856001600160a01b031685604051612c1b9190613498565b600060405180830381855af49150503d8060008114612c56576040519150601f19603f3d011682016040523d82523d6000602084013e612c5b565b606091505b5091509150612c6b828286612c75565b9695505050505050565b60608315612c84575081612844565b825115612c945782518084602001fd5b8160405162461bcd60e51b81526004016104cb9190613406565b600060208284031215612cc057600080fd5b81356001600160e01b03198116811461284457600080fd5b600060208284031215612cea57600080fd5b5035919050565b6001600160a01b0381168114611dae57600080fd5b8035612d1181612cf1565b919050565b60008060408385031215612d2957600080fd5b8235612d3481612cf1565b91506020830135612d4481612cf1565b809150509250929050565b60008060408385031215612d6257600080fd5b823591506020830135612d4481612cf1565b600060208284031215612d8657600080fd5b813561284481612cf1565b60008083601f840112612da357600080fd5b5081356001600160401b03811115612dba57600080fd5b60208301915083602082850101111561288957600080fd5b600080600080600060608688031215612dea57600080fd5b85356001600160401b0380821115612e0157600080fd5b9087019060e0828a031215612e1557600080fd5b90955060208701359080821115612e2b57600080fd5b612e3789838a01612d91565b90965094506040880135915080821115612e5057600080fd5b50612e5d88828901612d91565b969995985093965092949392505050565b600080600060408486031215612e8357600080fd5b8335612e8e81612cf1565b925060208401356001600160401b03811115612ea957600080fd5b612eb586828701612d91565b9497909650939450505050565b60208082526023908201527f4d7573742062652063616c6c6564207468726f7567682064656c656761746563604082015262185b1b60ea1b606082015260800190565b60208082526023908201527f4d7573742062652063616c6c6564207468726f756768206163746976652070726040820152626f787960e81b606082015260800190565b60208082526027908201527f4d757374206e6f742062652063616c6c6564207468726f7567682064656c6567604082015266185d1958d85b1b60ca1b606082015260800190565b80356001600160401b0381168114612d1157600080fd5b8183526000602080850194508260005b85811015612fee578135612fc981612cf1565b6001600160a01b03168752818301358388015260409687019690910190600101612fb6565b509495945050505050565b602081528135602082015260208201356040820152600061301c60408401612f8f565b6001600160401b0380821660608501526060850135915061303c82612cf1565b60018060a01b038216608085015260808501359150601e1985360301821261306357600080fd5b602091850191820191358181111561307a57600080fd5b8060061b360383131561308c57600080fd5b60e060a08601526130a261010086018285612fa6565b925050506130b260a08501612d06565b6001600160a01b03811660c08501525060c084013560e08401528091505092915050565b634e487b7160e01b600052604160045260246000fd5b604080519081016001600160401b038111828210171561310e5761310e6130d6565b60405290565b60405160e081016001600160401b038111828210171561310e5761310e6130d6565b604051601f8201601f191681016001600160401b038111828210171561315e5761315e6130d6565b604052919050565b600082601f83011261317757600080fd5b813560206001600160401b03821115613192576131926130d6565b6131a0818360051b01613136565b82815260069290921b840181019181810190868411156131bf57600080fd5b8286015b8481101561320757604081890312156131dc5760008081fd5b6131e46130ec565b81356131ef81612cf1565b815281850135858201528352918301916040016131c3565b509695505050505050565b600060e0823603121561322457600080fd5b61322c613114565b823581526020830135602082015261324660408401612f8f565b604082015261325760608401612d06565b606082015260808301356001600160401b0381111561327557600080fd5b61328136828601613166565b60808301525061329360a08401612d06565b60a082015260c092830135928101929092525090565b6000808335601e198436030181126132c057600080fd5b8301803591506001600160401b038211156132da57600080fd5b6020019150600681901b360382131561288957600080fd5b634e487b7160e01b600052603260045260246000fd5b634e487b7160e01b600052601160045260246000fd5b60006001820161333057613330613308565b5060010190565b60006020828403121561334957600080fd5b815161284481612cf1565b60006020828403121561336657600080fd5b5051919050565b60005b83811015613388578181015183820152602001613370565b50506000910152565b7f416363657373436f6e74726f6c3a206163636f756e74200000000000000000008152600083516133c981601785016020880161336d565b7001034b99036b4b9b9b4b733903937b6329607d1b60179184019182015283516133fa81602884016020880161336d565b01602801949350505050565b602081526000825180602084015261342581604085016020870161336d565b601f01601f19169190910160400192915050565b600081600019048311821515161561345357613453613308565b500290565b8082018082111561047b5761047b613308565b60008161347a5761347a613308565b506000190190565b634e487b7160e01b600052602160045260246000fd5b600082516134aa81846020870161336d565b919091019291505056fe360894a13ba1a3210667c828492db98dca3e2076cc3735a920a3ca505d382bbc416464726573733a206c6f772d6c6576656c2064656c65676174652063616c6c206661696c6564339759585899103d2ace64958e37e18ccb0504652c81d4a1b8aa80fe2126ab95a26469706673582212205a77756eb97b94d5937ab39760e2b4542ed66b7392ee9958d8b55573471424e264736f6c63430008100033",
  "devdoc": {
    "details": "Implementation for the Proxy. Version 1.0.",
    "kind": "dev",
    "methods": {
      "applyUpgrade()": {
        "details": "Can only be called by Proxy."
      },
      "deposit((bytes32,bytes32,uint64,address,(address,uint256)[],address,uint256),bytes,bytes)": {
        "details": "Deposit assets with given payload from the caller. Emits `Deposited` event.",
        "params": {
          "brokerSignature": "Payload signed by the broker.",
          "coSignerSignature": "Payload signed by the coSigner.",
          "payload": "Deposit payload."
        }
      },
      "getBrokerAddress()": {
        "details": "Get broker (only public key it is derived from exists) key for this vault.",
        "returns": {
          "_0": "address Broker (only public key it is derived from exists) key."
        }
      },
      "getCoSignerAddress()": {
        "details": "Get coSigner (only public key it is derived from exists) key for this vault.",
        "returns": {
          "_0": "address CoSigner (only public key it is derived from exists) key."
        }
      },
      "getLastId()": {
        "details": "Get last ledger id (deposits and withdrawals id).",
        "returns": {
          "_0": "uint256 Ledger id."
        }
      },
      "getNextImplementation()": {
        "details": "Must not be a delegated call.",
        "returns": {
          "_0": "VaultImplBase Next implementation contract address or zero address if not set yet."
        }
      },
      "getRoleAdmin(bytes32)": {
        "details": "Returns the admin role that controls `role`. See {grantRole} and {revokeRole}. To change a role's admin, use {_setRoleAdmin}."
      },
      "grantRole(bytes32,address)": {
        "details": "Grants `role` to `account`. If `account` had not been already granted `role`, emits a {RoleGranted} event. Requirements: - the caller must have ``role``'s admin role. May emit a {RoleGranted} event."
      },
      "hasRole(bytes32,address)": {
        "details": "Returns `true` if `account` has been granted `role`."
      },
      "initialize()": {
        "details": "Can only be called by Proxy."
      },
      "proxiableUUID()": {
        "details": "Implementation of the ERC1822 function. This returns the storage slot used by the implementation. It is used to validate the implementation's compatibility when performing an upgrade."
      },
      "renounceRole(bytes32,address)": {
        "details": "Revokes `role` from the calling account. Roles are often managed via {grantRole} and {revokeRole}: this function's purpose is to provide a mechanism for accounts to lose their privileges if they are compromised (such as when a trusted device is misplaced). If the calling account had been revoked `role`, emits a {RoleRevoked} event. Requirements: - the caller must be `account`. May emit a {RoleRevoked} event."
      },
      "revokeRole(bytes32,address)": {
        "details": "Revokes `role` from `account`. If `account` had been granted `role`, emits a {RoleRevoked} event. Requirements: - the caller must have ``role``'s admin role. May emit a {RoleRevoked} event."
      },
      "setBrokerAddress(address,bytes)": {
        "details": "Supplied payload must be signed by broker's current public key.",
        "params": {
          "address_": "New broker address.",
          "signature": "New address signed by broker's current public key."
        }
      },
      "setCoSignerAddress(address,bytes)": {
        "details": "Supplied payload must be signed by coSigner's current public key.",
        "params": {
          "address_": "New coSigner address.",
          "signature": "New address signed by coSigner's current public key."
        }
      },
      "setNextImplementation(address)": {
        "details": "Must not be a delegated call. Require caller to be Implementation Maintainer. Must not be zero address or self address. Emits `NextImplementationSet` event.",
        "params": {
          "nextImplementation": "Next implementation contract address."
        }
      },
      "setup(address,address)": {
        "details": "Require DEFAULT_ADMIN_ROLE to invoke. NOTE: once addresses are set, there is no way to change them if their private key is lost. In such case, vault implementation contract becomes useless and requires an upgrade.",
        "params": {
          "brokerAddress": "Address derived from broker public key.",
          "coSignerAddress": "Address derived from coSigner public key."
        }
      },
      "supportsInterface(bytes4)": {
        "details": "See {IERC165-supportsInterface}."
      },
      "upgrade()": {
        "details": "Require called to be Proxy Maintainer. Can only be called by Proxy."
      },
      "withdraw((bytes32,bytes32,uint64,address,(address,uint256)[],address,uint256),bytes,bytes)": {
        "details": "Withdraw assets with given payload to the destination specified in the payload. Emits `Withdrawn` event.",
        "params": {
          "brokerSignature": "Payload signed by the Broker.",
          "coSignerSignature": "Payload signed by the coSigner.",
          "payload": "Withdraw payload."
        }
      }
    },
    "version": 1
  },
  "userdoc": {
    "events": {
      "BrokerAddressSet(address)": {
        "notice": "Address derived from broker's new public key is set."
      },
      "CoSignerAddressSet(address)": {
        "notice": "Address derived from CoSigner's new public key is set."
      },
      "Deposited(uint256,address,address,uint256,bytes32)": {
        "notice": "Deposited event."
      },
      "Withdrawn(uint256,address,address,uint256,bytes32)": {
        "notice": "Withdrawn event."
      }
    },
    "kind": "user",
    "methods": {
      "DEPOSIT_ACTION()": {
        "notice": "Deposit type identifier value."
      },
      "WITHDRAW_ACTION()": {
        "notice": "Withdrawal type identifier value."
      },
      "applyUpgrade()": {
        "notice": "Call `_migrate` defined by the Implementation to migrate any storage variables. Call `upgrade` function on itself to ensure the this contract is the latest version."
      },
      "deposit((bytes32,bytes32,uint64,address,(address,uint256)[],address,uint256),bytes,bytes)": {
        "notice": "Deposit assets with given payload from the caller. Emits `Deposited` event."
      },
      "getBrokerAddress()": {
        "notice": "Get broker (only public key it is derived from exists) key for this vault."
      },
      "getCoSignerAddress()": {
        "notice": "Get coSigner (only public key it is derived from exists) key for this vault."
      },
      "getLastId()": {
        "notice": "Get last ledger id (deposits and withdrawals id)."
      },
      "getNextImplementation()": {
        "notice": "Return next implementation contract address or zero address if not set yet. NextImplementation points to the next implementation contract in a chain of contracts to allow upgrading."
      },
      "initialize()": {
        "notice": "Call `_initialize_ defined by the Implementation to initialize any storage variables."
      },
      "setBrokerAddress(address,bytes)": {
        "notice": "Set the address derived from the broker's new public key. Emits `BrokerAddressSet` event."
      },
      "setCoSignerAddress(address,bytes)": {
        "notice": "Set the address derived from the coSigner's new public key. Emits `CoSignerAddressSet` event."
      },
      "setNextImplementation(address)": {
        "notice": "Set next implementation contract address if not set yet. NextImplementation points to the next implementation contract in a chain of contracts to allow upgrading."
      },
      "setup(address,address)": {
        "notice": "The setup function sets addresses of the broker and coSigner."
      },
      "upgrade()": {
        "notice": "Perform an upgrade from the current implementation contract to a next one specified in a current Implementation. Also calls `applyUpgrade` on a next implementation."
      },
      "withdraw((bytes32,bytes32,uint64,address,(address,uint256)[],address,uint256),bytes,bytes)": {
        "notice": "Withdraw assets with given payload to the destination specified in the payload. Emits `Withdrawn` event."
      }
    },
    "version": 1
  },
  "storageLayout": {
    "storage": [
      {
        "astId": 24,
        "contract": "contracts/vault/VaultImplV1.sol:VaultImplV1",
        "label": "_roles",
        "offset": 0,
        "slot": "0",
        "type": "t_mapping(t_bytes32,t_struct(RoleData)19_storage)"
      },
      {
        "astId": 2832,
        "contract": "contracts/vault/VaultImplV1.sol:VaultImplV1",
        "label": "__nextImplementation",
        "offset": 0,
        "slot": "1",
        "type": "t_contract(VaultImplBase)3052"
      },
      {
        "astId": 2912,
        "contract": "contracts/vault/VaultImplV1.sol:VaultImplV1",
        "label": "__initialized",
        "offset": 20,
        "slot": "1",
        "type": "t_bool"
      },
      {
        "astId": 2914,
        "contract": "contracts/vault/VaultImplV1.sol:VaultImplV1",
        "label": "__migrated",
        "offset": 21,
        "slot": "1",
        "type": "t_bool"
      },
      {
        "astId": 3087,
        "contract": "contracts/vault/VaultImplV1.sol:VaultImplV1",
        "label": "_isSetup",
        "offset": 22,
        "slot": "1",
        "type": "t_bool"
      },
      {
        "astId": 3089,
        "contract": "contracts/vault/VaultImplV1.sol:VaultImplV1",
        "label": "_brokerAddress",
        "offset": 0,
        "slot": "2",
        "type": "t_address"
      },
      {
        "astId": 3091,
        "contract": "contracts/vault/VaultImplV1.sol:VaultImplV1",
        "label": "_coSignerAddress",
        "offset": 0,
        "slot": "3",
        "type": "t_address"
      },
      {
        "astId": 3094,
        "contract": "contracts/vault/VaultImplV1.sol:VaultImplV1",
        "label": "_ledgerId",
        "offset": 0,
        "slot": "4",
        "type": "t_struct(Counter)1794_storage"
      },
      {
        "astId": 3100,
        "contract": "contracts/vault/VaultImplV1.sol:VaultImplV1",
        "label": "_sigUsage",
        "offset": 0,
        "slot": "5",
        "type": "t_mapping(t_address,t_mapping(t_bytes32,t_bool))"
      }
    ],
    "types": {
      "t_address": {
        "encoding": "inplace",
        "label": "address",
        "numberOfBytes": "20"
      },
      "t_bool": {
        "encoding": "inplace",
        "label": "bool",
        "numberOfBytes": "1"
      },
      "t_bytes32": {
        "encoding": "inplace",
        "label": "bytes32",
        "numberOfBytes": "32"
      },
      "t_contract(VaultImplBase)3052": {
        "encoding": "inplace",
        "label": "contract VaultImplBase",
        "numberOfBytes": "20"
      },
      "t_mapping(t_address,t_bool)": {
        "encoding": "mapping",
        "key": "t_address",
        "label": "mapping(address => bool)",
        "numberOfBytes": "32",
        "value": "t_bool"
      },
      "t_mapping(t_address,t_mapping(t_bytes32,t_bool))": {
        "encoding": "mapping",
        "key": "t_address",
        "label": "mapping(address => mapping(bytes32 => bool))",
        "numberOfBytes": "32",
        "value": "t_mapping(t_bytes32,t_bool)"
      },
      "t_mapping(t_bytes32,t_bool)": {
        "encoding": "mapping",
        "key": "t_bytes32",
        "label": "mapping(bytes32 => bool)",
        "numberOfBytes": "32",
        "value": "t_bool"
      },
      "t_mapping(t_bytes32,t_struct(RoleData)19_storage)": {
        "encoding": "mapping",
        "key": "t_bytes32",
        "label": "mapping(bytes32 => struct AccessControl.RoleData)",
        "numberOfBytes": "32",
        "value": "t_struct(RoleData)19_storage"
      },
      "t_struct(Counter)1794_storage": {
        "encoding": "inplace",
        "label": "struct Counters.Counter",
        "members": [
          {
            "astId": 1793,
            "contract": "contracts/vault/VaultImplV1.sol:VaultImplV1",
            "label": "_value",
            "offset": 0,
            "slot": "0",
            "type": "t_uint256"
          }
        ],
        "numberOfBytes": "32"
      },
      "t_struct(RoleData)19_storage": {
        "encoding": "inplace",
        "label": "struct AccessControl.RoleData",
        "members": [
          {
            "astId": 16,
            "contract": "contracts/vault/VaultImplV1.sol:VaultImplV1",
            "label": "members",
            "offset": 0,
            "slot": "0",
            "type": "t_mapping(t_address,t_bool)"
          },
          {
            "astId": 18,
            "contract": "contracts/vault/VaultImplV1.sol:VaultImplV1",
            "label": "adminRole",
            "offset": 0,
            "slot": "1",
            "type": "t_bytes32"
          }
        ],
        "numberOfBytes": "64"
      },
      "t_uint256": {
        "encoding": "inplace",
        "label": "uint256",
        "numberOfBytes": "32"
      }
    }
  }
}